:020000041000EA
:1000000000B5324B212058609868022188439860DF
:10001000D860186158612E4B002199600221596106
:100020000121F02299502B49196001219960352056
:1000300000F044F80222904214D00621196600F024
:1000400034F8196E01211966002018661A6600F04E
:100050002CF8196E196E196E052000F02FF8012189
:100060000842F9D1002199601B49196000215960AB
:100070001A491B48016001219960EB211966A021F2
:10008000196600F012F800219960164914480160C1
:100090000121996001BC002800D000471248134993
:1000A000086003C880F30888084703B5996A0420EC
:1000B0000142FBD001200142F8D103BD02B5186610
:1000C0001866FFF7F2FF186E186E02BD00000240BE
:1000D000000000180000070000035F00212200005C
:1000E000F4000018222000A00001001008ED00E03C
:1000F00000000000000000000000000074B24E7A12
:1001000000200420F7010010C3010010C5010010F9
:10011000C1010010C1010010C1010010C101001097
:10012000C1010010C1010010C1010010C701001081
:10013000C1010010C1010010C9010010CB01001065
:10014000CD010010CD010010CD010010CD01001037
:10015000CD010010CD010010CD010010CD01001027
:10016000CD010010CD010010CD010010CD01001017
:10017000CD010010CD010010CD010010CD01001007
:10018000CD010010CD010010CD010010CD010010F7
:10019000CD010010CD010010CD010010CD010010E7
:1001A000CD010010CD010010CD010010CD010010D7
:1001B000CD010010CD010010CD010010CD010010C7
:1001C00000BE00BE00BE00BE00BE00BE00F04BF888
:1001D000103800BEF2EB887150880010748800104F
:1001E0003402001090A31AE700202149086006C8D5
:1001F00081F3088810471F48006800282FD10DA4FC
:100200000ECC002902D000F012F8F9E71A491B4A77
:10021000002000E001C19142FCD1194988471949E9
:1002200088471949884700BEFDE701C901C29A42C3
:10023000FBD3704774880010C0000020640B0020BE
:1002400018930010000004200000042018930010F0
:1002500000100420001004200000000070470B482C
:1002600003F078FB0047EFF30580C0B27047000051
:1002700008ED00E0000000D0680B00204C190020C1
:10028000C918001025030010ED1900105756000082
:1002900006005250ABB36053C885001006005250A0
:1002A000861C0302D8850010060052505422A29DDD
:1002B000E485001005005250DE65F46818930010C4
:1002C000F8B5C04610B5064C2378002B07D1054B76
:1002D000002B02D0044800E000BF0123237010BDB2
:1002E000700B00200000000078820010084B10B551
:1002F000002B03D00749084800E000BF0748036807
:10030000002B00D110BD064B002BFBD09847F9E71E
:1003100000000000740B002078820010640B0020A5
:1003200000000000F0B5DE464E4645465746E0B5B3
:1003300089B004F049FC594804F09CFA584B5949DB
:100340001800994606F006FE0321042000F0B8F8D4
:100350000321052000F0B4F800220121042000F060
:10036000C7F800220121052000F0C2F86B2306AC7B
:1003700023700023220063706821009348460233F3
:1003800006F038FE012398463B2302AA02A98C46B8
:10039000D37343460F220025624400936821012352
:1003A000484606F027FE00952200062368214846AD
:1003B00006F074FE22786378120213431BB2029394
:1003C000A278E378120213431AB203922279637976
:1003D0001202134318B24323834602A8C373404654
:1003E00002AA944600900F2060440200423B68211C
:1003F000484606F0FFFD0095220006236821484686
:1004000006F04CFE237866781B021E43A378E7783B
:1004100022791B021F4363791202134318B241234E
:10042000824602A8C373404602AA944600900F2059
:1004300060440200403B6821484606F0DBFD009521
:10044000220002236821484606F028FE23786578BA
:100450001B02039A029936B23FB21D4312485B4613
:1004600004F0A6FB2DB253463A0031000F4804F0C9
:100470009FFB280003F094FD00220D4B03F01FFDAD
:100480000C4A0D4B03F012FD02000B000B4804F068
:100490008FFB642000F0E2FC76E7C0467882001013
:1004A00000030020801A0600AC820010CC820010ED
:1004B00000407540A4703D0AD7434240EC820010D2
:1004C000094A830094464022634410B51C68C0006A
:1004D0006240C02414408022520113431C60034B2D
:1004E0009C466044416010BD04C001400040014092
:1004F0000B4B80009C46604400290DD00C21082342
:10050000002A00D00B00026853400C221A408023BE
:100510005B0118430260704704210023F0E7C046E6
:1005200004C00140F8B5EFF3108C72B60D4F3B6874
:10053000002BFCD0BFF35F8FCB08C01805780724D1
:100540002B000C40E3400126334008D1A640354340
:100550000570BFF35F8F3B608CF31088F8BD10000F
:1005600001F046FA2C0100D0F8B54746CE46884641
:1005700080B5EFF3108C72B61D4D2C68002CFCD0AA
:10058000BFF35F8F9A4218D8D4080419267807253C
:1005900037001540EF40F9071ED507218946063977
:1005A00008E0D408041926784D4637001540EF407E
:1005B000394211D001329342F3D201204042BFF3BD
:1005C0005F8F00220A4B1A608CF31088002809DB29
:1005D0000CBC90469946F8BD0123AB401E432670E3
:1005E0001000ECE74346002BF2D0089801F000FA27
:1005F0002C0100D00021044B044ABFF35F8F02C3DB
:100600009342FAD17047C046000100D0800100D06B
:10061000044A1078431CDBB2172B00D91023137047
:100620007047C0464002002000B5054B83B0010072
:10063000009318221F230348FFF796FF03B000BD65
:10064000F8820010400F0020024B18688007C00F8E
:100650007047C04600C00640F8B5040006200D00F3
:1006600001F05AFB03000020002B44D0294B8022CC
:100670009C424DD0D203284B28491A60284B1A605F
:1006800010008B689843FBD1264B8021E3185A4217
:100690005341254A5B0049000620995201F03CFB7A
:1006A0002900C00003F0B4F9C30925D01F4A9342C2
:1006B00025D900231E4F1F4A260080256262A362AF
:1006C00000232C36AD0135432B60062001F024FBBE
:1006D0003900800003F09CF96023E26A53406E22E7
:1006E0001A4080235B0133431A60134B23631023AA
:1006F0002B600D3BA364F8BD40270122DCE77F227D
:100700001040013040089F011A003F180300D3E752
:100710001204B0E70080034000E0004000C0004049
:1007200000F000400080FCBF5C160020FEFF0000CF
:10073000C0FF3F00FFFF00000103000083680B487B
:1007400010B5844661446244090112019A1859188F
:1007500054684B6801209C4201D802D00020C0B2EE
:1007600010BD12680B689A42F9D8F7E7FFFFFF0F38
:1007700040BF002000217047F8B54E465746454619
:10078000DE46E0B51F000DAB1B78804699460C9BFA
:100790001600002B35D030226B469B184246FF25B1
:1007A00092681B7894469A460C9B0A9A1D403C4BD3
:1007B000EB181B0163449A600B9A1E605F60DA605D
:1007C00043461B6800229B466B005D195B461B6815
:1007D000033D5B199A705A701A705B465C7B002C63
:1007E00021D05346002B20D15B465C730C9B9C426E
:1007F00032D01C0020003CBC90469946A246AB4635
:10080000F8BD02680024937B002BF3D010685900D8
:100810008446C9186144033949789173002900D18D
:10082000D1730C93B7E75446DEE75B4652469868AF
:1008300021005B6898475B461A68002821D0630056
:100840001B195519033BD318AC701A78002A00D035
:100850006A7052461A70C7E743463200187D3B0063
:1008600000F0C4FC051E07D04B46002B04D14346C4
:100870005146186800F0FEFE0E9B002BBAD01D708A
:10088000B8E763001B19033B5519D31852469A70F9
:100890002A78002A00D05A702C705446A4E7C0462B
:1008A000FFFFFF0FF0B5DE46454657464E46724BFA
:1008B0008200E0B5D55800239B468DB00B9000F028
:1008C00033FC6B68EFF3108472B61A68002AFCD010
:1008D000BFF35F8F2A689446527B9146002A00D16D
:1008E0007CE0AA68654B90464B441B019844434604
:1008F0001E685F6832003B00121A8B41002B00DC3F
:1009000085E032003B000B9800F070FC00210022D3
:1009100000270026089109926B68BFF35F8F5A4643
:100920001A6084F31088002E67D0534618024B4695
:1009300039001843B0476A6806900791EFF31088B2
:1009400072B644461368002BFCD0A046BFF35F8FFD
:100950000699079A002A24DA2B69002B27D0089BD6
:10096000099C5B1A9441089809991A00230099423E
:1009700000D975E000D177E0594604910121039137
:1009800049460197029100962800FFF7F5FE5B4665
:100990002B616B68BFF35F8F5A461A6088F310882B
:1009A0008DE71300194302D02B69002B4BD12B6824
:1009B000DA7B002A07D051008A1819688C4649460C
:1009C0006244033A51704A46DA73EA684B469446E9
:1009D000013B63441A7801321A70D8E700210022E3
:1009E00000270891099200260020BFF35F8F5A4626
:1009F0001A6084F31088002E97D1002800D05EE79B
:100A00000DB03CBC90469946A246AB46F0BD002BCB
:100A100002D1002A00D074E70121604600F07EFD7B
:100A200043461A685B680892099343469E68DF68EC
:100A3000EB684B44013B1B789A461B021843286124
:100A40006B68002069E700F06FFB069A079B12189D
:100A50004B41994204D800D08EE7904200D88BE7F2
:100A600001225242D31787E7904200D884E701223F
:100A70005242D31780E7C0462C160020FFFFFF0F1D
:100A800070B5184C2368002B00D070BD032000F017
:100A90003FFB032000F008FC1349032000F060FB3B
:100AA000182003F03BFE0500FFF7B2FD0F4B2A00B4
:100AB0009C466044800068600D49102000F0FCFCFA
:100AC00010212860102003F02DFE0121A8601020C5
:100AD00003F028FE03232B75064BE860DD602560DC
:100AE000D3E7C0466C0F0020A5080010400000347A
:100AF0003D0700102C160020014B18687047C046B7
:100B00006C0F0020F0B5DE4657464E464546E0B530
:100B100085B00092019310AB1B7807009B46002321
:100B2000994698467B68EFF3108A72B61A68002AD5
:100B3000FCD0BFF35F8F3D68AC7B002C00D173E02D
:100B4000660036192B68033E9B195B78AB73002B4C
:100B500000D1EB73BA68554B94460099019AE3189B
:100B60001B01634419605A600E9A02949A600F9AAE
:100B7000DA6042462B689B199A705A701A706B7B28
:100B80000393002B00D17EE019006B682200A86857
:100B90009C46E0472A68002866D003989619844648
:100BA00043006344033BD318B0701A78002A00D086
:100BB00078E01C706873844266D0FB681B19013BA7
:100BC00018787B68BFF35F8F42461A608AF31088FB
:100BD000002C34D04B46002B09D1029B0002184355
:100BE00005B03CBC90469946A246AB46F0BD5B467C
:100BF000002B59D00E9B0F9900209847030004004A
:100C00000D000B4350D000291CDA00980199020016
:100C10000B00121BAB4199421FD801D190421CD846
:100C200000920193D9467DE7002200200292BFF393
:100C30005F8F42461A608AF31088002CCAD10120C7
:100C40004042CDE700F070FA24184D410094019520
:100C5000A94202D8E6D1A042E4D901235B42DC17C5
:100C6000D946009301945DE7039996198C464B0091
:100C70006344033BD3189C703278002A00D05A702A
:100C80006B461B7B33706C73387D009A019B00F0C0
:100C9000ADFA8146002800D18FE72100386800F0C6
:100CA000E9FC8AE7727084E7002099E7FFFFFF0FF5
:100CB000F0B557464E464546DE460400E0B50D0009
:100CC00006267642F71736196F4183B08F423DD81A
:100CD0003AD000F029FA32003B00121A8B41002B67
:100CE0003EDD5A4B1B689A465B68EFF3108B72B679
:100CF0001A68002AFCD0BFF35F8F524612689146F3
:100D0000927B9046002A30D1BFF35F8F00221A6099
:100D10008BF310884346002B09D039004C4A536AA4
:100D20008B420FD3906AB04201D28B420AD020008E
:100D3000290000F005FA03B03CBC90469946A24653
:100D4000AB46F0BD20BFEAE78642C2D900260027A5
:100D500000F0EAF932003B00121A8B41002BC0DC94
:100D6000002BE4D1002ABCD1E1E753004344033B0C
:100D70001A0000934B4694464A461B6863445B78CE
:100D80009373002B00D1D37352469268314B944633
:100D90004344314A1B0163449A6000221E605F6035
:100DA000DA6000994B468C461B6863449A705A700F
:100DB0001A704B465B7B0193002B36D019004846D6
:100DC0004B46424680685B68984700281AD00198D5
:100DD000009984464A46430063448C46694612683B
:100DE0000979033BD318624491701978002900D027
:100DF000517042461A704B465873804518D053467E
:100E00005B6881E74B4601981A688446009BD118BD
:100E100043006344033BD31842469A700A78002A81
:100E200000D05A706B461B790B704B4642465A7382
:100E300053463200187D3B0000F0D8F90028DED080
:100E400053464146186800F015FCD8E76C0F0020A7
:100E500000400540FFFFFF0F7107001070B506004E
:100E600000F062F9FA2204000D0092000023300025
:100E7000002103F0EFFB001969418D4205D90120E3
:100E80004042C117FFF714FF70BD8D42FAD1844272
:100E9000F5D8F7E7F0B557464E464546DE46E0B58D
:100EA0006F4B83B01E68984681460F007368EFF35E
:100EB000108A72B61A68002AFCD0BFF35F8F3568BB
:100EC000AC7B002C49D063001B19033B1A009446ED
:100ED00001932B6863445B78AB73002B00D1EB73F9
:100EE000B268604B94464A46E3181B0163441A609B
:100EF0005D4A01999A6000228C46DA605F602B6837
:100F000063449A705A701A706B7B9B46002B00D119
:100F10008FE022001900A8686B6898472A680028AB
:100F200000D178E05B4601995B008C4659465B44F2
:100F3000033BD318624491701978002900D0517096
:100F40001C705B466B735C4500D173E00025F36851
:100F50001B19013B1A78736801E000250022BFF3DA
:100F60005F8F002119608AF31088002C44D0002D77
:100F700042D11202144320BF43461E687168EFF34A
:100F8000108872B60B68002BFCD0BFF35F8FE3B202
:100F90009C463068437B634559D0FF2323405A0069
:100FA000934602689B4492465A465244033A9278CA
:100FB000002A2BD0F268240A92465344013B1B7846
:100FC000A34247D0BFF35F8F00230B6088F31088E4
:100FD000264A536A9F4207D8926A01254A4503D29E
:100FE000FF1A7B1E9F41FDB2280003B03CBC904617
:100FF0009946A246AB46F0BD1C4A0025536A9F4263
:10100000F2D8926A01354A45EAD3EDE733699C424A
:10101000D8D13261D6E7019BD1185B465B005B44B7
:10102000033BD3189C700A78002A00D05A705B46A4
:101030000B706C73307D4A463B0000F0D7F8051EFC
:1010400000D183E72100306800F014FB7FE7FF2325
:101050002340AFE7614600F00DFB7168B2E7C04680
:101060006C0F0020FFFFFF0F7107001000400540CC
:10107000F8B5CE46474680B5EFF305833F221340CF
:1010800018001038EFF3108C72B61B490A68002A5A
:10109000FCD0BFF35F8F01210F008740174D184A26
:1010A0006F63147891462200C24090464646002263
:1010B00031420BD0696A134D884681004D59A845CD
:1010C00012D3114BBC43CA584B461C70BFF35F8F01
:1010D0000021094B19608CF31088002A00D090473A
:1010E0000CBC90469946F8BD08499B00884643448D
:1010F00019681960EAE7C046280100D000400540A1
:101100005916002044160020300F0020D03F054023
:1011100010B50100024A0348FFF704FA10BDC046AB
:101120002083001057160020044A516A00E019007D
:10113000906A536A9942FAD17047C0460040054010
:10114000064A536A9942FCD807D1044B02E05A6A16
:10115000914202D19A6A8242F9D370470040054019
:1011600070B504000D00EFF3108672B61A4A1368CA
:10117000002BFCD0BFF35F8F002D1BD0200000F0B0
:101180002FFE164988420AD0200000F031FE0121CE
:10119000200000F00BFE0123A340114A1360114B05
:1011A000A400E550BFF35F8F00220B4B1A6086F35B
:1011B000108870BD0B4BA200D5500122A2400A49F5
:1011C00020000B7893430B70044900F03BFE002194
:1011D000200000F0EBFDE5E7280100D071100010C1
:1011E00038600540300F002059160020F0B5CE467B
:1011F0004746294C80B5656A00E00D00A66A616A21
:10120000A942FAD1AB4237D9EFF3108872B6234C1A
:1012100021680029FCD0BFF35F8F012585401E495E
:101220001F4E4D63ECB2A4463478A14664464F4647
:101230003C433470041DA40062501A4C80000351DA
:101240000C6A00202C420CD04C6A00E004008F6A2B
:10125000486AA042FAD1A34202D813D1BA4211D9A6
:101260000020BFF35F8F00220C4B1A6088F31088B8
:101270000CBC90469946F0BDAB4201D1B242C3D8F6
:101280000120F5E7044B4F461D625D6363469F43B3
:1012900037700120E5E7C04600400540280100D036
:1012A000591600204416002010B5EFF3108472B6D2
:1012B0000A490B68002BFCD0BFF35F8F01238340EA
:1012C000074A0848136202789A430270BFF35F8F9F
:1012D00000230B6084F3108810BDC046280100D0A5
:1012E0000040054059160020024B9C46614489008D
:1012F000016070474000003410B50400FFF788F922
:1013000001002000FFF7F0FFFF232371BFF35F8F81
:1013100010BDC04610B504000120FFF785F901009B
:101320002000FFF7E1FFBFF35F8F10BDF8B54E4619
:101330004546DE465746E0B54C0064180368033C5A
:101340001A190D00517806008946002906D1280097
:101350003CBC90469946A246AB46F8BD4F004F4470
:10136000033FD81941788846002141705170002D03
:1013700012D073684A462900B0689847336800283D
:1013800073D0DF191A19BD701178002900D0797057
:1013900049462700117000E04D464246002AD6D04B
:1013A00054004444033C1A1951788946002911D14C
:1013B000736842462900B06898473368002849D0CE
:1013C0001C19DF19A5703B78002B00D063704346D1
:1013D0003B70BCE74900494403398A465344597875
:1013E0008B4600215970517073684A464146B06877
:1013F00098473368002843D152461C199A184B4627
:10140000A3701378002B00D0637043465446C8463F
:1014100013705B46002BCBD059463000FFF786FF98
:1014200081460028C4D002004146B06873689847DE
:10143000326800282FD04B465B004B44033B111908
:10144000D31842469A700A78002A00D05A704B4648
:101450000B70ADE71C19DF194346BB702378002BD6
:1014600000D07B702570454671E749461C19DA1992
:10147000A1701178002900D0617015704D468CE77D
:1014800041461A19534499701178002900D05970B7
:101490004B461370BDE74B465B004B44033BD118F2
:1014A00014194A46A2700A78002A00D06270424697
:1014B0001C000A70C8467BE7F0B5C64605000E0062
:1014C00000B510210120904603F02CF9EFB2040082
:1014D000466007730321280003F024F94346A36004
:1014E000002306002060FF2063730133A373E773BA
:1014F0002840012807D9721C411C013313700133A5
:1015000003329942FAD143001818002330180338E7
:101510004370200004BC9046F0BDC046F0B54E4676
:1015200057464546DE46E0B5477B03687C00E41934
:10153000033C1A19167883B005008946002E1ED187
:10154000002911D1C07B002869D041000918591821
:1015500003394F70EF73002E06D0710089190339DB
:1015600088460021434499700023380053706E73FD
:1015700003B03CBC90469946A246AB46F0BD710014
:10158000891903398846591848788246002807D1B6
:1015900049460029E5D1E87B0028D6D1EF73DCE786
:1015A00042005244033A9446019263445A78934667
:1015B00000225A704A706B6852463100A8689847FA
:1015C0002B68002832D0414601985A1819188E709D
:1015D0001078002825D1514611705A46002A23D090
:1015E00059462800FFF7A2FE824600281BD00200C1
:1015F0006B683100A86898472B68002825D04246C0
:101600009918524652005244033A9A189670087834
:10161000002800D0507052460A701A19B8E7EF73CC
:10162000A2E74870D7E72B681A19B1E74146504640
:10163000019A59189A1888701078002800D04870BC
:101640001670019A56469046C7E7524651005144DB
:1016500003395A18404693465246181882705A4623
:101660001278002A00D042705A46884616701A191D
:1016700056468DE7F0B54546DE4657464E46E0B540
:101680000C0083B00500002200293DD0477B016893
:10169000BC426BD066003619033E88198378002B54
:1016A00032D05A00D318033BCB181A78944202D197
:1016B00043E0002A08D053009B18033BCB185A780C
:1016C0009442F6D142785A700023837043700378B5
:1016D0009846002B25D1EA7B002A1DD053009B1889
:1016E000CB18033B5C704346EC73002B00D171E0D8
:1016F0005C0000234444033C09198B704370002FA5
:101700001ED1434601226B73100003B03CBC9046CF
:101710009946A246AB46F0BDB846EC730023437031
:10172000EFE719002800FFF701FE2968EA7B8046F1
:101730006F7B8819002AD6D0D0E742781A70C3E7A9
:1017400042463900A8686B6898472A68002824D068
:101750007B00DB191419033BD318A7701A78002AF1
:1017600000D062704246B8461A70CAE77E00F61989
:10177000033E8B191878804600281BD1E87B00288F
:1017800004D0420012188A18033A5470EC730022F5
:101790005A70434601326B73B6E77B00DB19033B9B
:1017A0001419D31842469A702278002A00D05A7031
:1017B0002770A6E744004444E01E019008184478CE
:1017C000A246002C08D1EC7B002C76D1EF730022CE
:1017D0008270DCE7B846A1E763005344033B9946B7
:1017E00049444B784A7042709B4622006B684146E0
:1017F000A86898472B6800284BD049464046019C72
:1018000059181A1988701078002850D15146A146ED
:1018100011705A46002A20D059462800FFF786FD4D
:10182000041E19D002004146A8686B68984700283A
:101830001ED04A4641462B68981862001219033A96
:101840009A1891700178002900D051700470E97BDA
:10185000002905D19B19B9E72B684A469818F6E785
:101860004A0052189A18033A57709B19EF73AEE763
:101870004B462968600000190338CB1808189C7083
:101880000278002A00D05A704346A04603708B1994
:1018900099E74A469818019A9C185246A270027815
:1018A000002A00D062704246D0460270B1E748700C
:1018B00051461170019A9146ABE7032262438A18A0
:1018C000033A577082E7C0462C4A2D4B70B51A6018
:1018D0002C4A2D4B2D491A6010008B689843FBD180
:1018E0002B4E2C4B9E420AD2F5430024ED18AD0836
:1018F0000135A300F35801349847AC42F9D100F008
:1019000095F8254A204B1A60204A9368DB01803302
:10191000FBD14022214B224C9A675A671A67DA663C
:10192000204B9C420BD2E6430025F618F608013600
:1019300020000135FFF7E0FC0834B542F8D11A4D1C
:101940001A4CC022A168280002F0FEFEA560FEF736
:1019500051FE00F0ABFBFFF793F8154E154B9E427E
:101960000AD2F5430024ED18AD080135A300F35861
:1019700001349847A542F9D170BDC046BFCDFFFFE5
:1019800000E00040FE7F3C0000F0004000C000404E
:10199000500B0020600B0020FFFFFF0100F0014012
:1019A000480B0020500B00200000002000ED00E05C
:1019B000600B0020640B0020094A1368002B06D03E
:1019C00008491818884208D2106018007047064B62
:1019D0000449181813608842F6D301204042F5E705
:1019E000A00F0020000004204C19002000BEFDE7DD
:1019F0000FB400B5084883B002F03CFF049B002BF5
:101A000007D005A91800019101F084FF034802F0F6
:101A100031FF00BEFDE7C04650830010E882001091
:101A200010B50148FFF7E4FF4483001030B50C20E7
:101A300083B000F077F9FEF707FE00280ED09C4B2C
:101A40009C4A1A605A609A60DA601A615A619A6117
:101A5000DA611A62984A5A6203B030BD974CA067A7
:101A600000F068F90122964B1A60636C012BFCD1DF
:101A70000322944B1A60914A936B012BFCD1C02234
:101A8000914B92011A60914B91491A6010008B683A
:101A90009843031EFAD1022406338E4A01218E4850
:101AA000009400F05BF905238C4A009401218C48D6
:101AB00000F054F98B4B5A68FF2A02D8802252005A
:101AC0005A6080227A4C7F4B21691201854D1A6041
:101AD000002900D0E5E0E021824B02201A68114085
:101AE000802252012A4311601968484003210140B5
:101AF000116004219A681142FCD080228021920159
:101B00002A4309011160802252005A60764B2361FA
:101B1000764B5968FF2900D8C1E00322684B73480F
:101B20001A60012103009A681142FCD0E0251A686E
:101B3000154080225201024315601B684B4003216F
:101B4000194011600221694A93681942FCD0802330
:101B500080219B010343090119608021644B4900E6
:101B600051606361634B5A68FF2A00D85960802234
:101B7000614BE16912015F4D1A60002905D060696F
:101B800001F046FF01300138FDD1E02259490B68D0
:101B90001A4080235B012B431A60802380229B0123
:101BA0002B4312011A608022424B52004A60E361CB
:101BB000524B5968FF2900D85A608022504B216A45
:101BC00012014E4D1A60002905D0606901F020FF16
:101BD00001300138FDD1E02248490B681A408023CA
:101BE0005B012B431A60802380229B012B4312014F
:101BF0001A6080235B004B602E4B424A2362424BAB
:101C00005968914201D801325A6080223F4B616A83
:101C100012013D4D1A60002905D0606901F0F8FEFF
:101C200001300138FDD1E02237490B681A4080238A
:101C30005B012B431A60802380229B012B431201FE
:101C40001A608023DB024B601B4B6362304B5A6887
:101C5000FF2A02D8802252005A6080222D4BA169AF
:101C600012012B4D1A60002905D0606901F0D0FEE9
:101C700001300138FDD1E02225490B681A4080234C
:101C80005B012B431A60802380229B012B431201AE
:101C90001A6080235B004B60154BA361DCE65A6041
:101CA0003BE7606901F0B4FE01300138FDD112E775
:101CB000440F0020006CDC021BB7000000800040D5
:101CC0003CB0004030B0004000E0004000F0004078
:101CD00000C00040002F68590080024000389C1C62
:101CE00000C0024030800040001BB7003C80004034
:101CF000405973075480004054B000406080004059
:101D000060B00040FFFF03006C8000406CB00040FA
:101D10004880004048B00040014B8000C0587047E8
:101D2000440F002080239B001843014BD86270476A
:101D300000800540AA23064A1B0113602F23054992
:101D4000D360054B19605368002BFCDA7047C0461E
:101D50000040024000B0FA0000600240F8B51D00EB
:101D600006AB1E7801235B424360002304008360BE
:101D700001600C20170001F04BFE0B494143380075
:101D800001F046FEC022231D92011A432123A060C8
:101D900013602368002BFCDA082336032D04354337
:101DA000E5601360F8BDC04640420F000123834048
:101DB000002902D1034A13607047034A1360034AA3
:101DC0001360F9E780E100E080E200E000E100E07C
:101DD00001238340014A13607047C04600E200E0DF
:101DE000024B10309B688000C058704700ED00E047
:101DF00070B50D00EFF3108672B60F4A1368002B12
:101E0000FCD0BFF35F8F0D4B10309B6884001B59D3
:101E10000B4A934203D09D4201D0FFF701FE074BCE
:101E20009B681D51BFF35F8FBFF35F8F0022024B92
:101E30001A6086F3108870BD240100D000ED00E028
:101E4000CD010010F0B5DE4657464E464546E0B59A
:101E50000C0083B0EFF3108B72B65B4A1368002B53
:101E6000FCD0BFF35F8F1022904680444246574B10
:101E700097009B68DD59564B99469D4206D0A54276
:101E800000D178E0534EAB1B2F2B12D94F4B9B68E0
:101E9000DD51BFF35F8FBFF35F8F00224A4B1A60A3
:101EA0008BF3108803B03CBC90469946A246AB46E3
:101EB000F0BD012383409A465246474B1B681A40A7
:101EC00000925246454B1A60BFF35F8FFEF7CBF985
:101ED0000190002844D10123290099438B689C423A
:101EE0004ED006200856002833DB0A0004E0062006
:101EF00018561A0000282CDB43001B189B00F3180F
:101F000098688442F3D10620185600283BDB420033
:101F10001118890074188846A1689960E179D9710F
:101F2000062161569971A1797F2926D8A488F11AD2
:101F30006405241544440919E0240905490D2402C7
:101F4000214399801218264B9200B6181A781870FF
:101F5000B271009B002B08D15246204B1A6095E7C6
:101F60008045B8D0FFF75CFDB5E752461D4B1A60BF
:101F7000194B1A608AE71D0088E7BD210902E0E7D6
:101F80000B000022BFE7019800280ED1002A19D0CB
:101F9000FF30907114489080114A891B1078891085
:101FA0009871124B4B431370D3E7114A1149D21A5F
:101FB000083A5002400D014399800F4952080A43E4
:101FC000DA80C6E74D46E7E7240100D000ED00E0E7
:101FD000CD0100104402002000E100E080E100E0BB
:101FE0005816002080E200E000BDFFFFABAAAAAABD
:101FF0007E02002000F0FFFF00F8FFFFF8B501258A
:1020000004000543FEF72FF9EFF3108672B6204A5D
:102010001368002BFCD0BFF35F8F1E4A1E49A31A22
:102020009B104B431D4980008F683F58BD4226D00E
:10203000062151568B4226D0122151568B4224D074
:102040001E2151568B4210D02A21515603208B421B
:102050000CD0134A11781370A171BFF35F8F002267
:102060000B4B1A6086F31088F8BD02204100091856
:1020700089005218FF2191710A499180E9E78A6825
:1020800009491150E5E70020F0E70120EEE7C046DE
:10209000240100D044020020ABAAAAAA00ED00E06F
:1020A0005816002000BDFFFFCD010010F0B5002242
:1020B0000324FF27802620003D00094B11009C4689
:1020C0001040C0008540A14361440B680132AB431E
:1020D000350085402B430B60202AECD1F0BDC04673
:1020E00000E400E07047C04610B5002803D04A68FD
:1020F0000B681100984710BD10B5002800D110BD25
:102100000B4B1C68A2689368013B9360002B04DBB7
:102110001368591C11601870F1E791698B4201DB5B
:102120000A28F5D10100200005F04EFBE7E7C04684
:1021300008030020F0B54546DE4657464E46E0B55A
:1021400083B099460EAB1D78119B88469B460223AF
:10215000129900920B4007000D9C109A0193002BDE
:1021600028D15B46002B00D092E0944222D2012677
:102170000E401F2C1ED80C9B30201B1902E001338F
:10218000202C03D001341870A242F8D8002E11D0B0
:10219000A3450FD90C9B30201B195E461F2C04D978
:1021A00087E00133202C00D1A7E001341870B4423D
:1021B000F7D1A346CB0611D54B0502D4002C00D095
:1021C0007CE00F9B102B00D1A0E0022B00D1A7E0F8
:1021D0001F2C11D830230C9A135501341F2C0BD807
:1021E000002D00D079E04B0700D588E00B0733D5F0
:1021F00020230C9A135501348B0730D0009E250004
:10220000A24632004446B0460C9B013D561C585D28
:1022100021004B46B8473200002DF5D14646A04676
:1022200054463619019B002B0ED0009D731B5B4555
:102230000AD23200444601364B4621002020B847DE
:102240003200731B5B45F6D3300003B03CBC9046B4
:102250009946A246AB46F0BD009E8B0715D15C4562
:102260006ED2009A0D9413005B441D1B0D9B4446D7
:102270009846561C4B4621002020B8473200B542F4
:10228000F7D14346A0461C000D93002CB7D1C9E7F7
:1022900001260E4028D0002D2AD10C230B4227D135
:1022A000944200D374E71F2C00D864E7A34500D8FC
:1022B00080E7CB06A0D54B0500D582E7A24202D02D
:1022C0005C4500D07DE7631E002B3BD00F9A023C9B
:1022D000102A1BD01C00130077E72D230C9A1355EE
:1022E00001348B07BBD089E7944200D241E761E714
:1022F00001235B429C46E344D2E7B346D9E72B2354
:102300000C9A135501348B07A9D077E78B060FD4AD
:102310001F2C00D970E778230C9A1355013457E726
:102320001F2C00D968E70C9A6033135501344FE72E
:102330001F2C00D960E758230C9A1355013447E746
:10234000009EA2E700243CE7F0B5DE4657464E4625
:102350004546E0B597B005000E0093461F00209A51
:10236000219B1000190001F008FE002800D0D5E2E2
:10237000209821990122BD4B524201F0EBFD00282B
:1023800000D081E1209821990122B94B524201F0FD
:10239000EFFD002800D017E1209821990022B54BCD
:1023A00001F0E6FD002800D0BCE120982199002230
:1023B000B14B01F0CFFD002800D0B3E12098219966
:1023C0000022002301F0C6FD002800D054E20023C3
:1023D0000D938023249ADB001A40914600D007E237
:1023E0000023A64C0893099406240EAB079320986B
:1023F000219901F0EDFD80460C9001F0D1FD020025
:102400000B002098219901F048FD089A099B01F0E2
:102410005FFD0A900B9101F0FFFD824601F0BCFDCB
:1024200002000B000A980B9901F037FD0022944B33
:102430000A900B9101F09CFD002800D1C5E1012319
:102440009C46E244504601F0A7FD089A099B01F022
:1024500087FD002800D030E2002C00D074E10C9CF5
:10246000200001F09DFD02000B002098219901F051
:1024700014FD0022824B0890099101F06BFD0028A9
:1024800000D10AE24B46202B00D196E15C1C0C9B4C
:102490000A211800984601F08FFA4A46079B30310E
:1024A000995440460A2101F087FA079B80469946D5
:1024B000A14400281BD02A00330025004E46444684
:1024C00099469046202D00D125E220000A2101F0F6
:1024D00073FA3031317020000A2101F06DFA0135B4
:1024E000040001360028EDD12C004E46454603235A
:1024F000249A1340012B00D19BE120229246202CEC
:102500000CD00D9A002A00D0C1E1249A520700D4C1
:102510004CE2621C92462B2207990A555A460892B1
:10252000002B17D1239B9A4500D34FE25B441C003C
:102530005346E41AB84637002E002500541C434683
:1025400039002020B0472200AC42F7D135003E00D0
:102550004746089453465C1E079B08AA9C461723CF
:10256000644494466344B946984637002E00089A5E
:10257000551C20784B463900013CB0472A00A04545
:10258000F6D1089B350053441C00249B3E009B075A
:1025900012D55B46239AE31A9A420DD91300C84616
:1025A00022005F4699460134434631002020A84767
:1025B0002200E31B9945F6D8200017B03CBC90469A
:1025C0009946A246AB46F0BD249B5B0700D5A4E02C
:1025D0002C4B9A4603230793249BD8469B0719D17B
:1025E000079B23998B4200D3ECE15A469B1A9846ED
:1025F000239B99463B0031002020541CA8474346AA
:102600001B1922009945F5D8239B5B441C00079BAE
:10261000E31A9846B14642465646BA462F00079CF2
:10262000013C551C305D53464946B8472A00002CF2
:10263000F6D1079B3D0043441C00249B4E469B075C
:10264000BAD55B46239AE31A9A42B5D91300D0460D
:1026500022005F4699460134434631002020A847B6
:102660002200E31B9945F6D8A6E7C046FFFFEFFF1F
:10267000FFFFEF7F65CDCD4165CDCDC180842E417B
:102680000000E03F48850010249BD8469B0716D1E8
:10269000239B042B00D897E11C1F5C44B8465A4684
:1026A00037002E002500541C434639002020B04737
:1026B0002200AC42F7D135003E004746A046CE4B43
:1026C000B9464246370004249A462E005346013C40
:1026D000551C185D39004B46B0472A00002CF5D137
:1026E0004446249B350004343E009B0700D463E736
:1026F0005B46239AE31A9A4200D85DE71300C84666
:1027000022005F4699460134434631002020A84705
:102710002200E31B9945F6D84EE7B84B9A460423AE
:10272000079359E7249B5A460493239B3100039354
:10273000229B28000293209B219C009301943B0044
:1027400000F064F9040037E74B46202B35D0631EB8
:1027500098464B460A2150465C1C01F059F94A46FE
:10276000079B3031995450460A2101F051F98146B6
:10277000002800D1B6E0079B9A463B00A24447469A
:10278000A84625004C46B14656469A4610E0200021
:102790000A2101F03DF93031317020000A2101F0A9
:1027A00037F9013F013504000136002800D194E0DB
:1027B000202DECD145464E4657460323249A13401C
:1027C000012B35D020229246A8E600220A980B99C8
:1027D0008B4B01F0BFFB002800D03DE65346002B99
:1027E00002D0DB0700D437E601239C46E24433E6FF
:1027F000229B092B00D8F2E00122302391460EA83B
:102800000370229B07905C1E2F32093B494604E06F
:1028100042540131013C202901D08B42F8D1794B3F
:10282000E2009B181A685B68894608920993DEE506
:102830002024239B002B47D00D9B002B03D1249AEF
:102840000C33134202D0239B013B2393239BA342CF
:102850003AD9202C00D1BDE0302221001800079B7E
:102860001B1901311A7088422DD001332029F8D16B
:102870005B468A4608936DE6209A219B0020002142
:1028800001F00BFB0123209021910D93A1E5621C27
:1028900092462D2207990A5540E600220898099988
:1028A000574B01F065FB002800D0EBE50123A4465F
:1028B00023409C4463460C93E4E5434601330C9368
:1028C00000239A46C8E5239C0123202C00D018E65B
:1028D0001F339A465B4608933CE62C004E4645461D
:1028E000B8465746202C00D167E742464046079B32
:1028F00011191B193022002807D001341A70202C1E
:1029000000D15AE701338C42F7D1631C99462E233C
:10291000079A1355B6E545464E464EE7249BD846E2
:102920009B0715D1239B032B52D9DC1E5C44B84670
:102930005A4637002E002500541C434639002020FB
:10294000B0472200AC42F7D135003E004746A046D2
:102950002D4BB9464246370003249A462E00534673
:10296000013C551C185D39004B46B0472A00002C2D
:10297000F5D14446249B350003343E009B0700D428
:102980001AE65B46239AE31A934200D314E6130037
:10299000C84622005F469946013443463100202054
:1029A000A8472200E31B9945F6D805E6249AA246DB
:1029B000120700D4B2E50122944607991F32E2447F
:1029C0000A55ABE5D84625E6D84678E60892C1E533
:1029D000D846BDE720239A465B460893BAE5DA005D
:1029E000084B9B185C681B68089309940023994660
:1029F0000EAB229C0793FAE450850010408500102E
:102A00000000E03F588500104C850010F0B5574697
:102A10004546DE464E46E0B59BB00A93249B82466F
:102A20001C000B93259B09911D000D920C93002215
:102A300000232000290001F08DFA002800D088E151
:102A40000B9A0C9B90469B468023289ADB001A40E9
:102A5000119201D1062326935B465800C14B400DCD
:102A60009C46604401F09CFABF4AC04B01F030FA2A
:102A7000BF4AC04B01F01AFA5B46BF4A1B031B0B4F
:102A80001A4304000D00BD4B11004046002201F026
:102A900004FABB4ABB4B01F01BFA02000B002000FA
:102AA000290001F003FA01F093FA814601F078FA67
:102AB000B54AB64B04000D0001F00AFA0022B44BEF
:102AC00001F0F4F901F084FAB24A0600B24B20009A
:102AD000290001F0FDF9040030000D00109601F00E
:102AE0005FFAAE4AAE4B01F0F3F902000B00200092
:102AF000290001F0D2F902000B0006000F0001F0DE
:102B0000E7F9320004000D003B003000390001F00D
:102B1000CDF900220E900F91A24B2000290001F068
:102B2000CEF90022A04B01F0C1F902000B002000F9
:102B3000290001F0C4F900229C4B01F0B7F9020012
:102B40000B002000290001F0BAF90D0080213200AD
:102B500004003B000020C90501F09FF902000B00B2
:102B60002000290001F0A2F902000B000E980F9935
:102B700001F0A5F90022804B01F098F98C4A109BD6
:102B80009446634400221B0501F0A2F905000E00E3
:102B900002000B004046594601F0DCF900280BD03A
:102BA00001235B429C462800310000227E4BE14419
:102BB00001F085F905000E004B46C62763339F429E
:102BC000BF41289B7F4204371B0522D5794A7A4BA7
:102BD0004046594601F0C4F9002800D1A9E000227E
:102BE000764B4046594601F0B5F9002800D1A0E0E7
:102BF000269A0023914503DA13004A469B1A013BAB
:102C000026938023289ADB001A4300230027994645
:102C10002892279B00249F4200D2DC1B0223289A83
:102C20001A40109203D07B427B415B421C404B46D2
:102C3000002B07D0404659462A00330001F03FF9E7
:102C400080468B46002200230B980C9901F082F9F4
:102C5000002800D078E0289A594B0394134004933D
:102C6000269B424602935B46099900920193504687
:102C70000A9B0D9AFFF768FB0400002F4FD0289B9A
:102C800065209B0653D4631C22009B4609990A9B2E
:102C9000D0474B46DA179D18DB0F99467B1E5540EF
:102CA0009846002412AF02E03400202E0DD02800F8
:102CB0000A2100F0ADFE661C30313C19217028005D
:102CC0000A2100F0A5FE051EEED10523069343461A
:102CD0000593002304930A3303934B460196099E00
:102CE00002930A9B00975A46310050469846FFF7D8
:102CF00021FA109B0400002B11D00D9F279AC31BB3
:102D00009A420CD9279B0200554699460134434606
:102D100031002020A8472200E31B9945F6D8200067
:102D20001BB03CBC90469946A246AB46F0BD20384D
:102D3000A9E7269B002B00D16BE7119B5A1E9341FC
:102D4000269AD31A269364E78021090659448B46B4
:102D500081E78022120694460C9BA04663449B4662
:102D600072E6C04601FCFFFFFB799F501344D33F3E
:102D7000B3C8608B288AC63F0000F03F0000F83FD0
:102D800061436F63A787D23F71A379094F930A40CC
:102D90000000E03F1655B5BBB16B0240EF39FAFEBB
:102DA000422EE63F00002C40000024400000184066
:102DB000FF0300002D431CEBE2361A3F80842E41B6
:102DC000FFF7FFFFF0B54546DE4657464E46E0B5F5
:102DD000A1B01D002A9B09920B93A24AA24B0A9014
:102DE00008911A60002900D187E300239B469F4B7E
:102DF0002C009A465D46207800280CD025281DD04E
:102E00006E1C2A00099B0A9D08990134A847207866
:102E100035000028F2D10999AB462A008D4200D333
:102E20004A1E099B089900200A9CA047584621B0D9
:102E30003CBC90469946A246AB46F0BD1023621CAE
:102E40009846083B9C461678043B9946023B9B46B5
:102E50003300203BDBB2002701211400102B0CD8DB
:102E600050469B00C3589F460F430132167814000A
:102E70003300203BDBB2102BF2D93300303B092B5F
:102E800000D8B5E1002398462A2E00D1A6E20023FF
:102E90009B462E2E00D1C0E13300683BDBB2122BE3
:102EA00018D8734A9B00D3589F46634601321F438C
:102EB000DCE7434601321F43D8E74B4601321F434C
:102EC000D4E75B4601321F43D0E780235B0066787E
:102ED0001F4301343300253BDBB2532B0FD8654A27
:102EE0009B00D3589F466678682E00D188E28023E5
:102EF0001F433300253BDBB20134532BEFD96F1C4A
:102F00002A00099B0A9D08993000A84701343D001A
:102F100071E766786C2E00D16CE280235B001F4362
:102F20000134D7E780239B0066781F430134D1E743
:102F30000B9B1A1D1B680E920B935B46002B00D156
:102F40002BE20B9A10781600002804D100F0A4FCA4
:102F5000013B002B03D001363278002AF8D10B9BBD
:102F6000F31A0C938023DB003B40994603D00C9B63
:102F70005B4500D9ABE202233B400F9300D1B3E1A4
:102F800000281ED04B46002B00D1D0E15B465F19D4
:102F90000B9BA3465E1BB1462A00099C0A9E09E0D2
:102FA00023000899551CB0474B46585D002800D1B6
:102FB000CEE12A009742F3D15C463D000F9B002BE7
:102FC00014D00C9A904511D943465819099B861A7A
:102FD00098462A00A1460A9F089C013543462100D5
:102FE0002020B8472A00B542F7D14C460E9B013449
:102FF0000B9300E70B9B1A1D1B689046002B00D11A
:10300000CEE1212217430B970F21002218AE8946EB
:10301000A44602E00A0020290CD048461840C4B259
:103020002700511C3737092801D830342700B754FE
:103030001B09EFD164460B9B01910693082305936E
:103040005B4604931023039300232A000293009607
:10305000099B08990A98FFF76DF84346050001346B
:103060000B93C8E6C52D00102416002060830010C5
:10307000A4830010F0830010782E00D1C5E1582EF3
:1030800000D12FE26F2E00D131E3622E00D126E273
:1030900010233A009A430C92692E01D000F01EFCD6
:1030A0000A230E937B0500D5B7E180270C9BBF0058
:1030B0001F4000D0B8E21A0080235B001A409146FE
:1030C00000D06EE30C9B5B0601D500F0F1FB0C9B7E
:1030D0000B9A1B0600D4C1E30021535E0432D90FC2
:1030E00014910B92DA179F185740002B09D10C99B5
:1030F00010330A009A4313000A000C93520500D5BE
:10310000DEE30C9A6123920600D54123DBB218AEB0
:103110000A3B16940F934C461595B1460E9E0EE051
:103120003033DBB24A4638001355310000F070FCF2
:10313000071E00D1FDE12C00202D00D1F9E1310066
:10314000380000F065FC651CCBB20929E8D90F9A5C
:1031500094466344DBB2E5E7462E00D1B4E1072292
:103160000B9B049707339343013294469C44624679
:103170000B92424603925A4602921A685B6808997B
:10318000009201930A982A00099BFFF7DDF80134A9
:10319000050030E66E1C2A00099B0A9D089925202F
:1031A000A8470134350026E6BB0700D5D2E04346E8
:1031B000012B00D888E3099B6F1E474498462A00DC
:1031C000A1460A9D089C561C434621002020A84782
:1031D0003200BE42F7D14C460B9B32001F1D1878BF
:1031E000751C099B08990A9EB04701340B9702E6AB
:1031F000002332009E00F61801347600B6182278BB
:10320000330011003039303B0929F3D998460023A7
:1032100016009B462E2E00D03EE680236678DB000B
:103220001F433300303B621C092B11D814003300BC
:103230005A469600B61801347600F6182378320004
:1032400019003039303A0929F3D91E00934623E694
:103250002A2E00D181E114001EE6202332009A4379
:10326000472A04D180231B011F4302239E43452E7E
:1032700001D120231F4307220B9B073393430132C5
:1032800094469C4462460B921A685B6810001900D1
:103290000C900D9100F071FE002800D08CE00C988D
:1032A0000D990122CA4B524200F062FE002800D064
:1032B00082E00C980D990122C64B524200F04AFE62
:1032C000002879D1434603935B46049702930899FB
:1032D0000C9A0D9B0A98009201932A00099BFFF714
:1032E00095FB0134050086E50C990B0001338845F8
:1032F00000D8EBE243462A005F190C94089D0A9C13
:103300007F1A561C099B29002020A0473200BE428C
:10331000F7D14346350001330C9C0C930B9B187876
:10332000002800D162E64B46002B00D02EE62A0092
:103330000B9BA3465F1BB9460A9E089C099F3B0056
:103340002100551CB0474B46585D2A000028F6D195
:103350005C4633E60B9B08991A1D18789146099B29
:103360002A000A9FB84743466E1C4544012B00D8EB
:10337000AEE2A3463200A846089C099E0A9D571C4F
:10338000330021002020A8473A004745F7D15C468A
:103390004B463D000B9301342DE501235B42D0E504
:1033A000102239009143113211430B917A0500D458
:1033B0002AE6002118AE3EE6434603935B46049797
:1033C000029308990C9A0D9B0A98009201932A0087
:1033D000099BFEF7B9FF013405000CE50B990B00C2
:1033E000096804338846002900DAB0E056780B9368
:1033F000541C4CE5C0239B00A6781F43023469E5AA
:10340000C023A6781F43023464E510230E930C23D7
:103410003A009A430C927B0502D501239A430C9201
:10342000692E00D141E6642E00D13EE680270C9B38
:10343000BF001F4000D09EE01A0080235B001A40AE
:10344000914600D070E10C9B5B0600D51FE20C9BFF
:103450001B0600D408E20B9B1F8804330B93002F3C
:1034600009D10C9910230A009A4313000A000C9307
:10347000520500D5D4E00C9A6123920600D5412371
:10348000DBB218AE0A3B15940F934C461495B14627
:103490000E9E0CE03033DBB24A4638001355310043
:1034A00000F0B6FA071E2BD02C00202D28D03100BA
:1034B000380000F0ADFA651CCBB20929EAD90F9AA1
:1034C00094466344DBB2E7E720231F4347E65B46AD
:1034D0000C9302233B400F9300D051E504E70223F5
:1034E0000E9394E70C233A009A4314331A431023A3
:1034F0000C920E937B0590D498E7374B0A9374E4B3
:103500004E462A00159C149D0C9B0693434605933A
:103510005B4604930E9B03930023029301922A00BF
:103520000096099B08990A98FEF704FE01340500ED
:1035300061E44E462A00169C159D0C9B069343465B
:1035400005935B4604930E9B0393149BE5E70221CE
:103550000F4341464942884648E70B9AA6781368CC
:1035600002349B46DB435946DB17194013000433F2
:103570008B460B9390E407220B9B07339343013256
:1035800094469C4462460B921A685F681300914609
:103590003B4308D10C9910330A009A4313000A00E8
:1035A0000C9352053CD40C9A6123920600D577E126
:1035B000DBB20A3B0F934346002216930E9B18AED4
:1035C0001495159415004C469846B14619E0C0462E
:1035D000FFFFEF7FFFFFEFFFE52000103032D2B298
:1035E0004B4620005A5539004246002300F056FA57
:1035F0000F000400014300D18FE03500202E00D1E0
:103600008BE0424600232000390000F047FAD2B296
:103610006E1C092AE2D90F9B9C466244D2B2DFE7B6
:10362000002318AE1A006FE707220B9B0733934362
:10363000013294469C4462460B921A685B68D91723
:1036400012911391129813990600564010960E008D
:103650005E401196109E119F361A8F41D90F109619
:10366000119717911A430BD10C9910230A009A4312
:1036700013000A000C93520502D5002718AE41E052
:103680000C9A6123920600D50CE1DBB20A3B0F9342
:10369000434616930E9B18AE0022984633001495AD
:1036A00015941600109C119D994611E03032D2B24B
:1036B0004B4620009A5529000023424600F0EEF9BF
:1036C000030004000D000B4314D03E00202F11D046
:1036D000424600232000290000F0E0F9D2B2771C16
:1036E000092AE3D90F9B9C466244D2B2E0E7082343
:1036F0000E938CE64E46169B109411959846159C99
:10370000149D0C9B0693434605935B4604930E9BC6
:1037100001970393179B029301E7169B3200149DB8
:10372000159C98464E46EFE60B9B1A1D1B6815929A
:103730009946002B0CD10C9910330A009A431300C0
:103740000A000C93520503D5002318AE1A006DE051
:103750000C9A6123920600D5A6E0DBB218AE0A3BB4
:1037600014940B934C460F95B1460E9E0CE03033EB
:10377000DBB24A462000D355310000F049F9041E5F
:1037800050D02F00202D4DD03100200000F040F906
:103790007D1CCBB20929EAD90B9A94466344DBB26B
:1037A000E7E70B9B1A1D1B681592D9175A184A4058
:1037B0009146DA0F1692002B0CD10C9910330A00A7
:1037C0009A4313000A000C93520503D5002318AE48
:1037D0001A0052E00C9A6123920667D4DBB218AE4D
:1037E0000A3B14940B934C460F95B1460E9E0CE089
:1037F0003033DBB24A462000D355310000F008F9DF
:10380000041E36D02F00202D33D03100200000F0D0
:10381000FFF87D1CCBB20929EAD90B9A9446634480
:10382000DBB2E7E74E462A00149C0F9D0C9B0693E3
:10383000434605935B4604930E9B03930023029338
:103840000192099B2A00009608990A98FEF772FCDB
:10385000159B05000B930134FFF7CDFA1368043272
:10386000D90F14910B923DE40B9B1F6804330B930B
:10387000F5E54E462A00149C0F9D0C9B069343468B
:1038800005935B4604930E9B0393169BD7E70B9B14
:103890001F7804330B93E2E500230C93FFF762FBE0
:1038A000412385E64123F0E6412356E7412395E78E
:1038B0000B9A137804320B9200221492FFF712FC39
:1038C000002318AE1A0038E62E0085E40C9327E595
:1038D0004B4635000B930134FFF78DFA063B17007A
:1038E0000E93642E00D092E5530500D595E5FFF7C1
:1038F000DCFBC04600B585B00093130001220290A6
:103900000391524202A90248FFF75CFA05B000BDDC
:10391000E920001010B5094A84B01468002C09D0C1
:10392000012200910300524203A90548A04701204B
:1039300004B010BD00F09EFF0020F9E7241600201F
:10394000F920001001480421014B18479002002083
:1039500075390010142310B50100188804331B8832
:10396000984710BD162310B50100188802331B8834
:10397000984710BDF8B54746CE4680B50F1E19D002
:1039800014239946043304000025012698464B462B
:103990001888434621681B88984701C4431E9841F4
:1039A000013540420640AF42F1D130000CBC904698
:1039B0009946F8BD0126F8E7144A936F9B0815D283
:1039C0009066D166002905D0FFE7FFE7FFE7516F5A
:1039D000106F704704B580210906C21751400028B6
:1039E00000D0C84304F028FC002104BD936F5B089D
:1039F000FDD3F0B5946ED56E576F166FFFF7E0FFED
:103A00009466D56657671667F0BD0000000000D0C9
:103A1000134A936F9B0813D210665166002905D094
:103A2000FFE7FFE7FFE7516F106F704704B500280D
:103A300001D00020C04304F0FFFB002104BDC046BC
:103A4000936F5B08FDD3F0B5946ED56E576F166F0C
:103A5000FFF7E2FF9466D56657671667F0BD000072
:103A6000000000D094464E4A926F9208624601D2FE
:103A700030E0C046F0B54A4EB56F6D08FCD3346EE9
:103A8000756E776F366F00F025F89446444A1466D9
:103A90005566576716676246F0BDC0469446404A71
:103AA000926F9208624601D258E0C046F0B53C4E93
:103AB000B56F6D08FCD3346E756E776F366F00F09E
:103AC0004DF89446364A146655665767166762463F
:103AD000F0BDC046002B24DB11D000293EDA00B532
:103AE000C943404200D1013100F038F8C943404297
:103AF00000D10131DB43524200D1013300BD002A25
:103B0000EBD1002801D1002905D00020C90FC90739
:103B100001D1C043410800B504F086FB0022002318
:103B200000BD00B500290ADBDB43524200D101335E
:103B300000F014F8C943404200D1013100BDC9432F
:103B4000404200D10131DB43524200D1013300F049
:103B500005F8DB43524200D1013300BD002923D1D7
:103B6000002B18D1002A0CD0BC460D4F38667A665F
:103B700000210023FFE7FFE7FFE77A6F386F674612
:103B80007047002801D00748010000B504F04CFB45
:103B90000022002300BD02000B000020002170471E
:103BA000000000D0FFFFFFFF002B00D0BDE0130C92
:103BB00026D1002AE7D080B4104F39667A66FFE735
:103BC000FFE730B4040C7B6F396F1B0423433B6663
:103BD000FFE7FFE7FFE7C04684B27B6F3D6F1B0442
:103BE00023433B66FFE7FFE7C04600232C042D0C70
:103BF0007A6F386F00196941B0BC7047000000D07F
:103C0000F0B594460025140E01D112020835140FA8
:103C100001D112010435940F01D192000235D40F65
:103C200001D152000135D40B0134254F7C66254C5F
:103C30003C660E0C93B2FFE7FFE7FFE73C6F66437D
:103C4000360C7703BE467343DF0B5B04C01AB941E1
:103C5000130C7343DB18C91ACE086643360CB644FE
:103C600093B273431F0F1B01C01AB941130C734366
:103C70001F0B1B05C01AB941860D8F023E436643D8
:103C8000360C092D24DB520A7243801A7703460A48
:103C90006643360C16235B1BDE40DF40BF196446CB
:103CA0006643821B7046043506330100D940A840A4
:103CB000C01900D30131A24206D20023F0BD00009A
:103CC000000000D0FFFFFFFF121B0130F3D3F1E72C
:103CD00009277F1BFE406446A2B27243801A00D2BD
:103CE0000139220C7243130C1204821A99410B0001
:103CF0007046043513370100F940A840801900D3FD
:103D00000131002B02D1A2420AD2F0BD013000D312
:103D10000131121BFAD2013BF8D1A24200D2F0BD10
:103D2000013000D30131121BF7E7F0B51C0C00D0B5
:103D300080E00CB400251C0A04D11B02160E33438C
:103D4000120208351C0B04D11B01160F334312015C
:103D500004359C0B04D19B00960F3343920002352F
:103D6000DC0B02D192185B4101351C0097186441AD
:103D70000134464F7C66464C3C660E0CFFE7FFE77D
:103D8000FFE7C0463C6F6643360C7703BE4697B2EA
:103D90007743C01B00D20139C01B00D201399FB24A
:103DA0007743C91BC91B170C77437E04FF0B801B8D
:103DB000B941CE086643360C0C2D33DBB644120BEA
:103DC0001F053A431B0B97B27743C01B00D2013942
:103DD0009FB27743C91B170C77433E043F0C801BEF
:103DE000B941860D8F023E43664329277F1BFE4063
:103DF0000C3D7746AF40BF1930BCA2B2ABB27243A4
:103E00007343801A9941220C7243130C1204801AD6
:103E1000994102000B000137001BA941F9D2781E1D
:103E20000021F0BD0C277F1BFE4077467F0BAF4083
:103E3000FF19E0E700245D1C07D0144F7D6639664A
:103E4000FFE7FFE7FFE7FFE73C6F95B29EB26543F0
:103E50006643401BB141150C1E0C65436643360496
:103E60002F0C3E432D04401BB141994204D2020065
:103E70000B0020000021F0BD01D19042F7D3801A41
:103E8000994101349942F2D3F6E70000000000D0D6
:103E9000FFFFFFFF48404140484018B4114B5B68AA
:103EA000FC46019308BD04DFAF40001018B40D4B71
:103EB0001B68FC46019308BD00DFB940001018B430
:103EC000084BDB68FC46019308BD0CDF7143001012
:103ED00018B4044B9B68FC46019308BD08DF1542EB
:103EE0000010000060160020FFB5504042405040D6
:103EF00059404B40594000E0FFB5154F4C00640D50
:103F000003D0BC4204D10C0314D80020090D0905CC
:103F10005C00640D03D0BC4204D11C030AD800220B
:103F20001B0D1B0501264B4009D44B4003D58B428A
:103F300000D18242FFBD9942FCD19042FFBD0B43AC
:103F4000DB1803431343F5D0C9434918FFBD0000F4
:103F5000FF07000000B5FFF7CFFF804100BDC0465E
:103F600000B5FFF7C1FF01D9002000BD012000BD51
:103F700000B5FFF7B9FF804100BD012040054A00B0
:103F8000121804D85A00121801D8002070470120D6
:103F900070470020704700000021002805D17047BD
:103FA000C1174840401AFAD0C90713B5064B1B6821
:103FB00098470CBC441CA2401005120B0349091B76
:103FC00009051943114310BD601800201F040000AB
:103FD00010B54C00620D8023D218DB00D21A5B05AD
:103FE0007E2A10DD9E3A13DACC17090349081943DB
:103FF0005242D140640001341532202A05DAD04003
:104000000843604310BD002010BD0846604310BD4A
:10401000C80FC018013810BD18B4044B5B6AFC46C9
:10402000019308BD24DF9D450010000060160020AC
:10403000132370B51C78012C10D00BDD0C48FFF752
:1040400091FC0C4D01008022280000F07DFB022C29
:1040500001D070BD074D084AAA64FAE7054D064A2B
:1040600029002B00803104C38B42FCD1AA64F0E705
:1040700053440000601600207D40001007B56046E4
:1040800001880A0A0230DF2AFAD1C9B2820804D3B1
:10409000028840880004104300E00068014A505044
:1040A000039007BD601600200FB403BC0CBCF0B534
:1040B0000124E407634000E0F0B50C0DCF0F661E4D
:1040C0003605891B640503D3C943404200D301313F
:1040D000640D03D0661CF60A07D0E41B00207F00A5
:1040E000791C89078912803C24031D0DDF0F6E1E89
:1040F00036059B1B6D0503D3DB43524200D30133CE
:104100006D0D03D06E1CF60A07D0ED1B00227F0058
:104110007B1C9B079B12803D2D032F1B661B58D4D5
:10412000A446202E46DA20371400BC401D00BD40B6
:10413000F24033412A4380185941CB0F05D0C9437F
:10414000C043002264425041514162464D0D28D186
:104150000D0D07D100281FD0241940414941013AD3
:104160000D0DF9D0640006D3013000D30131002CCD
:1041700001D140084000013A0BD4941CE40A04D158
:1041800012051144DB071944F0BDD907204B194330
:1041900000E0D9070020F0BD0029DDD1002CDBD1E3
:1041A000F0BD0132C6074008CD0728434908002E5C
:1041B000E1D0D9E73C2E29DA203E40371400BC403C
:1041C00000D00124F24014431A00BB401C43D31713
:1041D000ACE7AC46202F08DA20360400B4400D00CE
:1041E000B540F84039412843A5E73C2F0CDA203F81
:1041F00040360400B44000D00124F84004430800D5
:10420000B1400C43C117EAE710001900002494E7FD
:104210000000F07FF0B50C0D661E3605891BE60A1E
:104220006405640D02D0651CED0A04D00020012154
:104230000905803C2403A4461C0D671E3F05DB1BBB
:10424000E70A6405640D02D0651CED0A04D0002263
:1042500001231B05803C24037740644497B484B257
:1042600096B27443070C7E43150C6F4380B26843CB
:10427000361802D3012000043F183004350C001911
:104280007D41844688B29AB250430C0C62431F0CA5
:104290007C438EB27E43921902D301263604A419C0
:1042A0001604170C3618674101BC81B29AB251430B
:1042B000040C62431B0C5C4380B25843121802D3B7
:1042C0000120000424181004130C401863412D1819
:1042D0005E410020474106BC88B293B258430C0CA3
:1042E0006343120C544389B251435B1802D301213A
:1042F0000904641819041A0C091862416D18564112
:104300000020474118BCF902720D1143F0026A0DFA
:104310001043ED020A0D03D16D1940414941013BA3
:10432000124E9B1B7600B3420ED26D0007D30130B4
:10433000002671416646354301D1400840001B0507
:10434000C918E4072144F0BD0BDA013306D101306E
:1043500004D101314F0D01D04908F2E7E1070020F7
:10436000F0BD013631050020EBE70000FF0300003F
:10437000F0B51C0D671E3F05DB1BE70A6405640DE5
:1043800002D0661CF60A04D0002201231B05803CE3
:104390002403D0252D060026F6432E661E096E66E0
:1043A000CE0FF619B44649004F0D02D07E1CF60A16
:1043B00003D000200021403F3F033E1BB600B44421
:1043C000013F7F05C91B49082E6F013676089C0204
:1043D000950D25437543ED137543AD1301356D10F0
:1043E000F603761B0CB4CC02450D2C43A2B2B3B23B
:1043F0005A43270C7B43350C6F43A4B26C431B1903
:1044000002D3012424043F191C041D0CA4187D416F
:1044100024196D41009A91B2ACB26143170C7C43F0
:104420002B0C5F4392B25A43A41802D30122120408
:10443000BF182204230C52187B41019C6C431B19AA
:10444000520ED9010A434401A01A81B2B2B25143BB
:1044500003145A43360C734387B27743D617D219E5
:1044600000277E4136049B191704160C7F185E4105
:104470007316ED18F301002680337541A90F06D19C
:104480006400690AE8055B0A184309D22FE0042298
:10449000944480337541A90AA8059B0A184326D382
:1044A000404149412404009A019B0D005543641B7F
:1044B0004343E41A95B286B27543170C7E43030C4E
:1044C0005F4392B25A43B61802D301221204BF18B6
:1044D0003204330C52197B4152429C41002C02D4CD
:1044E0000022013051414008CA071043490802B078
:1044F0006246D7079210084BD218084B9A4203D253
:1045000012058918C919F0BD0020002A01DC390004
:10451000F0BD01331905F5E7FD030000FE070000BB
:10452000624618CA944600291ADAC01861415B46EF
:104530003B415C46B4405246FA40224344464D4615
:1045400062416B41904699462B46B3403D41FC4049
:104550001C4352465B46A241AB4192469B46704784
:10456000C01AA1414B463B414C46B4404246FA403A
:10457000224354465D4662416B4192469B462B4620
:10458000B3403D41FC401C4342464B46A241AB4137
:10459000904699467047002000217047002200B5E0
:1045A000203200F004F8080000BD000000220B15C6
:1045B000F1D410B5944600F02FF81414013400DA49
:1045C0000021CB17134C20476244343A0CD40C2AF8
:1045D00007DA04009140904052422032D4402143F7
:1045E00010BDD843D94310BD203207D40C469440A7
:1045F000524220321141D040204310BD0800C9175B
:10460000203203D452422032104110BD180019004C
:1046100010BD0000C94500100A0DCC0F531E1B052C
:10462000C91A520503D3C943404200D30131520D88
:1046300003D0531CDB0A07D0121B00206400611C4E
:1046400089078912803A1203014BD21A7047000081
:10465000FF03000051434343C9188C46110C83B239
:104660004B4310B4040C614392B280B25043624396
:104670001C041B0C001910BC59411304120CC01867
:104680005141614470470000132310B51C78134852
:10469000FFF768F9012C0BD004DD010080221048DF
:1046A00000F052F80F48FFF755F90F4B186010BD96
:1046B0000B4C01005422200000F046F80B4B6365C0
:1046C000A365E36523666366A366E36623676367A2
:1046D000A367E3672362E361E4E7C0465346000053
:1046E000601700204C33000060180020F1460010D5
:1046F00007B5604601880A0A0230DF2AFAD1C9B23A
:10470000820804D3028840880004104300E0006857
:10471000014A5050039007BD6017002010B502F009
:1047200041FD10BD10B502F005FD10BD014804218A
:10473000014B1847A002002075390010014B1B687F
:1047400018470000A0020020014B5B6818470000DA
:10475000A0020020F8B54746CE4680B5437C80468F
:104760000E001700002B48D0002A2EDD274B012514
:1047700000240020994604E02B00013401359F42BB
:1047800019DD002C3ED0631EF35C0D3B59425941AC
:10479000CBB2325D0A2AEFD1002BEDD1844226DC68
:1047A000434648461B6802219847013428002B00E5
:1047B00001359F42E5DCB8420BDBF619013E337848
:1047C0000D3B59425941434619740CBC90469946D9
:1047D000F8BD4346391A3018F6191B68013E984750
:1047E00033780D3B5942594143461974EDE743462E
:1047F000211A1B6830189847D2E70368110030006F
:104800009847E2E743461B7CC3E7C046F0850010AB
:10481000F0B5C6460B6800B506000D005A1C802B8B
:1048200005D02A60ED182E7104BC9046F0BD0F4BE8
:104830001C68002C16D00B1D0D4F984602E0E46852
:10484000002C0FD02368002BF9D03B68002B01D03F
:10485000A342F4D120002A684146FFF77BFFE468B9
:10486000002CEFD101220023DBE7C046980F002087
:104870009C0F0020F0B5DE464E4657464546E0B553
:1048800083B0070002F06EFFD02301AE1B06804606
:10489000310035481C6803F0D7FC8146002807D159
:1048A000019B9C4204D0304803F0DEFC0123994672
:1048B0004346C346013351D02C4B1C689A46002C0A
:1048C00040D02B4D02E0E468002C20D02368002B60
:1048D000F9D02B68002B01D0A342F4D15A463900FD
:1048E0002000FFF737FF0A233370637C002B30D0A2
:1048F000237C002B21D102211E482368984733785E
:104900000D3B594259412174E468002CDED14B46DD
:10491000002B1AD153461C68002C06D06368002B6C
:1049200000D09847E468002CF8D1404603B03CBC66
:1049300090469946A246AB46F0BD0121300023685F
:104940009847DCE74B46002BEFD0074803F064FCA8
:10495000E0E70121300023689847B4E7380002F00F
:1049600001FF8346A8E7C046480B0020980F0020AF
:104970009C0F0020F0850010F0B54646DE465746F5
:10498000C0B5904682B00E0000282CD1174B184DB0
:104990001A685B68174F9A46174B01929B465B4615
:1049A0001C68002C05D115E0A34205D0E468002C5A
:1049B00010D02B68002BF7D1A368002BF6D041460E
:1049C000300098470028F1DD02B01CBC90469A46A2
:1049D000A346F0BD7B6A9A45E1D8BA6A01998A423A
:1049E00001D29A45DBD001204042EDE71883001048
:1049F0009C0F002000400540980F0020F0B546466F
:104A0000D6464F46C0B5884682B0160001283FD131
:104A1000D0231B061C68204B01A918009A4603F0FE
:104A200013FC071E06D1019B9C4203D0504603F0A5
:104A30001BFC0137B146731C25D0184B1C68002C99
:104A400014D0174D02E0E468002C0FD02368002B2F
:104A5000F9D02B68002B01D0A342F4D120004A46A4
:104A60004146FFF777FEE468002CEFD1002F06D116
:104A7000300002B01CBC90469946A246F0BD50469C
:104A800003F0CAFBF4E7404602F06CFE8146D4E72F
:104A900001267642ECE7C046480B0020980F002024
:104AA0009C0F00200D4B1A68002A12D0824203D1BD
:104AB00009E0984207D01A00D368002BF9D10029E9
:104AC00000D0D06070470029FCD1C368D360C160BA
:104AD000F8E70029F6D01860F4E7C046980F0020E8
:104AE000F0B54746CE46D02380B52D4E1B06A5B067
:104AF0001B6804000F00300003A9984603F0A4FBD4
:104B0000051E06D1039B984503D0300003F0ACFB93
:104B100001358422002103A8FFF710FE3B0022008C
:104B200003A92048FEF7E6FE039B8046002B15D123
:104B30001D4B1C68002C06D06368002B00D09847E2
:104B4000E468002CF8D1002D02D0300003F064FBA3
:104B5000404625B00CBC90469946F0BD124B1C68EF
:104B60009946002C18D0114F02E0E468002C11D0B7
:104B70002368002BF9D03B68002B01D0A342F4D16D
:104B8000039B20001A0004A90193FFF7E3FDE468EA
:104B9000002CEDD14B461C6800230393CAE7C046A6
:104BA000480B002011480010980F00209C0F002097
:104BB0000FB400B583B004A901C90191FFF790FFBC
:104BC00003B008BC04B0184710B500F03DF800F081
:104BD0001FF910BD30B5002913DD0B4A9369DB06C0
:104BE0000FD4050010240020013093691C42FCD131
:104BF00013682B70814203D0936901351C42F3D0B6
:104C000030BD03204042FBE700400340F0B50029DF
:104C100010D020240D270A4B0A4A00269E5F411817
:104C20000578B54207D093691C42FCD1013015606C
:104C30008842F5D1F0BD93691C42FCD11760F2E7C0
:104C40005C16002000400340E12110B50A4B4902E8
:104C50001B780A4B0A481B78FBF7FEFC0221002058
:104C6000FBF72EFC02210120FBF72AFC012105485D
:104C7000FFF718FF10BDC046688800106C88001050
:104C800000400340B002002070B5184C82B005000F
:104C90000E00200001A903F0D7FA002808D1D02384
:104CA0001B061B68019A93421CD0200003F0DCFA1B
:104CB000002001F04DFC002807D103256D422000A3
:104CC00003F0AAFA280002B070BD002001F058FCE1
:104CD0000028F2D029003200002001F05FFC051E00
:104CE000EBD0ECE703256D42ECE7C0463C16002014
:104CF00010B51F20FDF76CF8FA200021800010BDD0
:104D000010B5064C0021200003F09EFA002804D0C4
:104D100000F06EFD200003F07FFA10BD3C1600206D
:104D2000F0B54F464646D646C0B5364B82B0070072
:104D30000E00180001A9994603F086FA002808D150
:104D4000D0231B061B68019A934241D0484603F0CA
:104D50008BFA002001F0FCFB002831D00024002E4B
:104D600033DD294B9A46984612E0002847D100F0DF
:104D70003FFD002001F09EFC002001F0E9FB00282F
:104D800023D0002001F0E0FC002827D0A6421CDD43
:104D90000020351B01F0D8FC8542E6DC39192A00D9
:104DA000002001F033FC050000F022FD002001F09E
:104DB00081FCFCF7B9F94346641918605960E5E7CE
:104DC00000200021104B18605960484603F024FA77
:104DD00002B01CBC90469946A246F0BDFCF7A4F96F
:104DE00053460D001A685B68002184460748121874
:104DF0004B419D42E9D8C9D19445C7D9E5E70500A3
:104E0000CCE7C0463C160020680B002020A107001C
:104E100010B51D4B84B01B7801F06CFE1B491F20A0
:104E2000FCF7E6FF01211F20FCF7C0FF1848FCF744
:104E300063FAFBF761FE0400FCF776F9FA2200231F
:104E4000920012184B41994218D901225242D317AD
:104E500001210291002101910E4920000091FBF7F0
:104E600051FE0400631E9C41E4B2002803D00121DE
:104E70000948FFF717FE200004B010BD9942E7D1A2
:104E80009042E2D8E4E7C04670880010014D00105F
:104E90003C160020F14C0010C4020020004870476E
:104EA000D4860010004870478886001010B500288E
:104EB00006D1124B12484380063BFF3B038010BDD6
:104EC000042819D80F4B8000C45800230C48821CBA
:104ED000E15C002907D0013311800232132BF7D196
:104EE000CA239B00EAE7FF22134001335A00C02384
:104EF0009B0013439BB2E1E70020E0E709040000B8
:104F0000700F0020E8860010F0B54546DE46574693
:104F10004E4698238024E0B5414A6402D35885B0B8
:104F20009846234224D00121392000223D4B1954B8
:104F3000597147315A541A753B490132002001F02A
:104F4000EBF88022394B92021A65394B03934346A2
:104F5000DB0613D4802342465B011A423ED144450E
:104F600058D105B03CBC90469946A246AB46F0BD30
:104F70001023039343460024DB06EBD5284B9F6D9B
:104F8000002F25D09A46294B002601259B4603E099
:104F90006D000136202E1BD03D42F9D05346DB6D0B
:104FA0005B46682401229D6573085C433423914667
:104FB000B2435343E4181B4B9C466444200000F06A
:104FC0003FFA00281AD1AF4301366D00002FE1D11E
:104FD000802342465B01039C1A42C0D0002215493F
:104FE00000200A700E491C430A600132012101F0C1
:104FF00023F880220D4B12031A65B0E74B46E26995
:10500000217900200093002301F0B4F8200000F083
:10501000E3F9D8E7414608486140FCF7E9FCC0469F
:1050200000001150A40F002000001050003011505B
:1050300010000100561600202487001010B5012131
:105040000520FCF7B3FE10BD094B10B50122197005
:105050003921002307484254427147328354037573
:10506000002234300133002100F07AFA10BDC0462E
:1050700056160020A40F00208022024B5202DA6450
:105080007047C04600201150F8B5050000F07CF9CB
:105090001E490520FCF7ACFED0221D4CD200002199
:1050A0002000FFF74BFB00231A4A1B4913701B4AD1
:1050B000402011608027012238261949E270627170
:1050C000E062E1600B60A755033EA2552066023600
:1050D0002430A355235413491348013EA3550336E6
:1050E000A255A3602161227020640360E36334331E
:1050F000E2540E4B61641A6480229205DA649022B5
:105100000B4928009950FFF7B7FFF8BD094F001071
:10511000A40F0020561600208001105028160020F1
:1051200084001050000110508000105000001150F9
:10513000101001000B785B0602D14B78052B09D0CB
:10514000012139200022064B5971195447311A7533
:105150005A547047034B1A78034B1A60F0E7C04665
:10516000A40F00205616002000001150F0B547464D
:10517000CE4680B58B780A799C4607234879C97852
:10518000034089071B02890F1343CAB291467F204F
:10519000624683B010406C46624668270726E2717B
:1051A00047433422B8466746A6573B4DF40F624347
:1051B0004244AA181771F743FF0FD770474247417F
:1051C0005470907057714A46012A59D0402B5AD8D2
:1051D000682734224743BC4662436244AA18D3621C
:1051E00030321170002E39DB2C4AC1009046EA198A
:1051F0004144D16000220A60002839D0284AC10009
:105200009446614434226826624346439219254EEF
:10521000AA18B446366891601661402B00D240232C
:105220003F22F318134201D0934340336246136088
:105230001D4B4A465E40A0231B06334397061F437F
:105240000F6034235C4334335843673B20182B549E
:10525000012003B00CBC90469946F0BD1349C20032
:105260008846E91942440A640021116000280ED1E1
:10527000342300226343EB189A600D4A1A61E0E779
:105280000C4A9342A4D919000B48FCF7B1FB064A1B
:10529000C10094466144B5E7A40F0020840010507B
:1052A00004001050281600200000105080001050FC
:1052B00000011050FF030000FC86001010B50C0028
:1052C000342011001A00E30958437F231C40173B88
:1052D0006343C018034B1818012300F041F9012063
:1052E00010BDC046A40F002070B57F253420682370
:1052F0000D40CE096B4370430C4CC01820188378C6
:10530000002B05D143785A425341094A0133936631
:1053100080220849120100F069F8682334215D43B6
:10532000714349196118673B0B7570BDA40F0020CC
:1053300000201150FFF7FFFF70B57F253420682350
:105340000D40CE096B4370430C4CC0182018837875
:10535000002B05D143785A425341094A01339366E1
:105360000022084900F042F8682334215D430023FD
:105370007143491961180B7570BDC046A40F002018
:1053800000301150FFF7FFFF80220E4B520410B582
:105390001A600D4B0D491A6010008B689843FBD1C1
:1053A0000B4C9C2200212000FFF7C8F9802200212D
:1053B00052010848FFF7C2F9092363670333A36763
:1053C00010BDC04600E0004000F0004000C00040BA
:1053D0000000115000001050002332220375437565
:1053E00083548361C36103628362704710B5C368ED
:1053F000002901D01C682140002A11D08024E4003B
:10540000114322420CD01A6822420BD1094A0A40A9
:105410001A60FFE7FFE7FFE7FFE7FFE7FFE7C36883
:10542000196010BD4378044A9B0081789A5803485C
:10543000FCF7DEFAFFFBFFFFD802002038870010E0
:10544000F0B5C64600B5437D82B004009846002BF7
:1054500000D16EE0C368C0781D68AD05AD0D0028B1
:105460003DD1E369E918E161A269551A402D34D8AC
:105470006B189B1A5E425E41331C6E462427F37103
:10548000F3792562E3558A4250D34DD000283FD0AE
:105490008022D200154362791100481E81414903E0
:1054A0000D4301214A406271002B02D08023DB01B1
:1054B0001D43E26813685B0540D4244B2B40136006
:1054C000FFE7FFE7FFE7FFE7FFE7FFE70020E3680D
:1054D0001D6002B004BC9046F0BD4025C8E7E269FB
:1054E000A36A94466344180021692A00FFF72CF947
:1054F000E369E078E918E1610028B5D0236A9D42AC
:10550000B2D20023012223622433A161E254E0E7F6
:10551000A36A2A009C4620696144FFF715F9842399
:105520001B021D43E35DB6E74046D2E70848FCF79F
:105530005FFA8178074A0848FCF75AFA6378054A07
:105540009B00A1789A580548FCF752FAFFFBFFFF31
:1055500084870010D8020020588700103887001078
:10556000F8B51F000400437D002F43D1002B00D16C
:10557000C3E0C368C2781E68B605B60D002A00D025
:1055800081E0C369F118C161A069451A402D00D9B5
:1055900077E06B181B1A5F425F412426FBB225623D
:1055A000A355884200D29DE023D0002A00D18DE08F
:1055B0008022D200154362791100481E81414903BF
:1055C0000D4301214A406271002B02D08023DB0190
:1055D0001D43E26813685B0500D586E0494B2B400C
:1055E0001360FFE7FFE7FFE7FFE7FFE7FFE7E36899
:1055F0001D60F8BD002B32D100231500A261E361CC
:10560000402A36D88023DB001343012224260020C1
:10561000627524322562A162A755A054E278002A5F
:105620004BD062791100481E814149030B4301218F
:105630004A406271002F02D08022D2011343E168F8
:105640000A68520551D42F4A1A400A60FFE7FFE763
:10565000FFE7FFE7FFE7FFE7E2681360C9E7002322
:1056600003753220235400231500A261E361402A10
:10567000C8D9403D6F426F418823FFB2DB0040250F
:10568000C3E7402585E7C269836A944663441800EE
:1056900032002169FFF758F8E369E278F118E16117
:1056A000002A00D170E7236A9E4200D36CE70122F2
:1056B0002423A1612762E2549BE72A002069FFF7B7
:1056C00043F884231B022B43A75DAAE7A36A2A00A1
:1056D0009C4620696144FFF737F884231B021D4371
:1056E000A35D68E70848FCF783F96378074A9B00E5
:1056F000A1789A580648FCF77BF98178034A054857
:10570000FCF776F9FFFBFFFF84870010D80200202A
:105710003887001058870010024B5878431E984174
:10572000C0B27047F00E0020024B18784007C00F3F
:105730007047C046F00E0020F8B5372200212348FC
:10574000FEF7FCFF224C2000FBF7D6FD214B1C602E
:10575000214C20001830FBF7DDFD200001F0E4FBB8
:105760001E4B1C601E4B002B26D01E4D0024280013
:1057700000E000BF1C4E2B7830601C4F0AE0E300B5
:105780001B1B32689B009B58984701342B78E4B26E
:10579000A34209DB9C42F2D314D13B009847013469
:1057A0002B78E4B2A342F5DA0020FFF76DFC00206D
:1057B000FFF744FC0120F8BD00F0D4FF094B1B7833
:1057C000002BF1D000231B68FFDEC046F00E002046
:1057D000A80E0020280F0020E00200202C0F00203F
:1057E0000000000054160020C00B00206567001068
:1057F000F0B5DE4657464E464546E0B58BB001F063
:1058000089F9002800D171E1CD4B07AC9B465B467E
:105810001E68B269EFF3108172B61368002BFCD0DA
:10582000BFF35F8FF1613000210001F0D7F9B26959
:105830000500F369BFF35F8F0021116083F31088C7
:10584000002800D152E16378082BE0D8BD4A9B00C4
:10585000D3589F466368002BD9D0A0689847D6E7F5
:105860007F222179B84B0A405500C8095B191B18E3
:105870001800012620304579B54345714579033636
:10588000B5434571002A00D17BE1B04ADB7C002A98
:1058900000D134E1AE4A1278934200D32DE1DA0010
:1058A000D31AAC4A9B001268D318002B00D11DE11B
:1058B0005D6927E10122A44E002033781343337041
:1058C00023789A4600F0BCFD27797B069B0F032BBB
:1058D00000D12BE160233B40402B00D157E1FF0674
:1058E000FF0E012F00D163E1002F00D18EE1022FC6
:1058F00000D01BE17F22217A0A409046082A00D975
:1059000014E1CA099146002B00D193E143465B00A4
:105910000025984646448D4A4E44F37C002A00D127
:105920002BE28B4A1278934200D324E2894ADE00AC
:10593000F31A16689B00F618002E00D112E23069A7
:1059400000F07EFDF36808A950469847002800D172
:1059500008E2602223791A4200D058E7002000F0C4
:105960006FFD54E77C4B002B00D150E700E000BFF7
:105970004DE77A4B002B00D149E7734B18780007AD
:10598000C00F00E000BF42E7714F704B3A7800252E
:10599000002B00D1A4E06F4E07E0AA4200D0A2E0A5
:1059A0000135EDB2AA4200DA31E7AA42F5D93168F1
:1059B000EB008C465B1B9B0063449B69002BEFD084
:1059C000207898473A78EBE75F4D3722002128008E
:1059D0002678FEF7B3FEE81C1022FF21FEF7AEFE8C
:1059E00028001222FF211330FEF7A8FE00F01EFD52
:1059F000574F564A3B780025002A68D0554A9046B2
:105A0000574A91460EE042461268EB0094465B1BF3
:105A10009B0063445B683000984701353B78EDB2EA
:105A2000AB420ADBAB42EED857D14B463000984729
:105A300001353B78EDB2AB42F4DA4A4B002B00D192
:105A4000E5E600E000BFE2E63F4E23783722002182
:105A500030009846FEF772FE1022FF21F01CFEF780
:105A60006DFE30001222FF211330FEF767FE00F0BA
:105A7000DDFC374F354A3B780025002A00D177E01E
:105A8000344A9146364A924632003E004746904696
:105A90000EE04A461268EB0094465B1B9B00634491
:105AA0005B683800984701353378EDB2AB420ADBCA
:105AB000AB42EED811D153463800984701353378C0
:105AC000EDB2AB42F4DA46462379B3709FE630007C
:105AD00000F084FE3B78002BAFD000235B68FFDE34
